:100000006CC00000DAC60000FFC600008EC0000011
:100010008CC000008AC0000088C000000C94AB0AAD
:1000200084C0000082C0000080C000007EC00000CC
:100030007CC000000C94110B78C0000076C000005A
:100040000AC7000072C000000C94C7090C94F9099B
:100050006CC000006AC0000068C0000066C00000FC
:1000600064C0000062C0000005A84CCDB2D44EB9F7
:100070003836A9020C50B9918688083CA6AAAA2A4B
:10008000BE000000803F00000008000201000003E5
:100090000407000000000000000001020408102016
:1000A000408001020408102001020408102004040A
:1000B0000404040404040202020202020303030310
:1000C000030300000000250028002B0000000000B2
:1000D000240027002A0002001E0A11241FBECFEFB1
:1000E000D8E0DEBFCDBF11E0A0E0B1E0E6E3FEE185
:1000F00002C005900D92A237B107D9F723E0A2E71D
:10010000B1E001C01D92AB30B207E1F710E0CDE6DF
:10011000D0E004C02197FE010E94130FCC36D10716
:10012000C9F70E94740B0C94190F6ACF611101C0BA
:100130009BC76130E9F362E0FBCF662311F061E019
:10014000CFC760E0FDCF0895CF93282F882349F0D3
:10015000CB01BA01C22F0E94910C8FEF8C0FCF916F
:10016000FFC6CF9108950F931F938B019C0183E0ED
:1001700036952795179507958A95D1F70E581E4FF6
:10018000462F477021E030E0F90102C0EE0FFF1F5B
:100190004A95E2F7AF01F80120812423CB010196B3
:1001A000211102C090E080E01F910F9108950F93FC
:1001B0001F938B019C0183E0369527951795079532
:1001C0008A95D1F7677081E090E001C0880F6A9549
:1001D000EAF7F801EE58FE4F2081452B31F4809567
:1001E000822380831F910F910895822BFACFCF92A3
:1001F000DF92EF92FF92CF93DF936B017C0161E07E
:100200008C2D32D7E6012196AE01C701B601CFDFB2
:10021000CE01DF91CF91FF90EF90DF90CF900895C6
:10022000882341F08150682F70E090E080E050E03A
:1002300040E0BDCF0895CF93DF93EC0189819A818F
:10024000AB81BC810197A105B105C1F48D818823E3
:10025000A9F06A857B858C859D8585DF9987888750
:1002600040E050E0BA0170DF6A857B858C859D8512
:100270007ADF99878887DF91CF91D2CFDF91CF91B5
:100280000895CF92DF92EF92FF926B017C019F77EE
:1002900020E030E040E859E50E94220C87FF2BC0A7
:1002A00020E030E040E05FE3C701B6010E944E0E5F
:1002B00087FD0EC020E030E040E05FE3C701B601FB
:1002C0000E94AB0BFF90EF90DF90CF900C94FF0C4F
:1002D00020E030E040E05FEBC701B6010E944E0E27
:1002E000181684F420E030E0A901C701B6010E948D
:1002F000520E6B017C01C701B601FF90EF90DF90B9
:10030000CF90089520E030E040E05FE3C701B60100
:100310000E94AA0BFF90EF90DF90CF900C940F0CEF
:100320004F925F926F927F928F929F92AF92BF9205
:10033000CF92DF92EF92FF92CF93DF9300D000D065
:10034000CDB7DEB74B015C0169017A0134D5882352
:10035000E9F08090FF0290900003A0900103B0901C
:100360000203C501B4010F900F900F900F90DF9121
:10037000CF91FF90EF90DF90CF90BF90AF909F9084
:100380008F907F906F905F904F900895C701B60156
:1003900012D58111DECFC501B401CAD48111D9CFE4
:1003A000C701B601C5D48111DCCF20E030E0A9013E
:1003B000C701B6010E94220C87FF4CC0C701B601DD
:1003C0000E940F0C2B013C01A3019201C701B60151
:1003D0000E94220C882309F44CC0A7019601C50194
:1003E000B4010E94290C2B013C01E89477F820E02D
:1003F00030E040E05FE3C301B2010E94AB0B0E941A
:10040000FF0C9B01AC01C301B2010E94AA0B9B012E
:10041000AC015F7729833A834B835C8320E030E033
:1004200040E054E3C301B2010E94520E9B01AC01B3
:1004300069817A818B819C810E94220C1816CCF0F4
:1004400020E030E0A901C501B4010E94520E4B0129
:100450005C0187CFC701B6010E94FF0C2B013C0154
:1004600020E030E0A901C701B6010E94220C8111F1
:10047000ABCFA7019601C501B4010F900F900F906B
:100480000F90DF91CF91FF90EF90DF90CF90BF90D2
:10049000AF909F908F907F906F905F904F900C9453
:1004A000190D4F925F926F927F928F929F92AF92AF
:1004B000BF92CF92DF92EF92FF92CF93DF93CDB7AF
:1004C000DEB72A970FB6F894DEBF0FBECDBF60919E
:1004D0003702709138028091390290913A0243DEDE
:1004E0009A8389839093360280933502209100018C
:1004F000309101014091020150910301609104018A
:100500007091050180910601909107010E94520EA1
:100510006B017C0120E030E04FE753E40E94220CA5
:1005200087FF72C120E030E0A901C701B6010E9437
:100530004E0E18160CF06FC1C701B601A2DE0E9464
:10054000910C70E090E080E00E94C20CAB01BC0115
:1005500089819A81F9DD209100013091010140915A
:10056000020150910301609108017091090180918D
:100570000A0190910B010E94520E20910C013091C2
:100580000D0140910E0150910F010E94520E69839E
:100590007A838B839C8320911001309111014091CB
:1005A0001201509113016091140170911501809115
:1005B0001601909117010E94520E2091180130915E
:1005C000190140911A0150911B010E94520E6D8336
:1005D0007E838F8398879B01AC0169817A818B81AF
:1005E0009C810E94AB0B20E030E040E05FE30E9482
:1005F000520E6093ED027093EE028093EF0290939F
:10060000F0026091E1027091E2028091E302909128
:10061000E4028ED3882309F402C1C090FF02D09077
:100620000003E0900103F09002032601370160917E
:10063000450270914602809147029091480293DDF5
:100640009A878987909344028093430220911001F6
:1006500030911101409112015091130160912C01D0
:1006600070912D0180912E0190912F010E94520EC8
:100670004B015C0120E030E04FE753E40E94220C84
:1006800087FFA1C120E030E0A901C501B4010E94AB
:100690004E0E18160CF09EC1C501B401F2DD0E9489
:1006A000910C70E090E080E00E94C20CAB01BC01B4
:1006B00089859A8549DD6091540182E03EDD609133
:1006C000550184E03ADD6091560187E036DD6091A6
:1006D000570188E032DD2D813E814F815885698147
:1006E0007A818B819C810E94AA0B209124013091F8
:1006F000250140912601509127010E94290C20914B
:1007000028013091290140912A0150912B010E942A
:10071000520E20911C0130911D0140911E015091FB
:100720001F010E94520E2091E1023091E20240919D
:10073000E3025091E4020E94AB0B6093E1027093DC
:10074000E2028093E3029093E4028090ED029090A5
:10075000EE02A090EF02B090F002A7019601C50151
:10076000B4010E94520E209130013091310140912C
:100770003201509133010E94520E2091E5023091D6
:10078000E6024091E7025091E802E5D76093E50266
:100790007093E6028093E7029093E802A30192012E
:1007A000C501B4010E94520E20913C0130913D01DF
:1007B00040913E0150913F010E94520E2091E9026A
:1007C0003091EA024091EB025091EC02C4D7609361
:1007D000E9027093EA028093EB029093EC022A966E
:1007E0000FB6F894DEBF0FBECDBFDF91CF91FF9063
:1007F000EF90DF90CF90BF90AF909F908F907F90C1
:100800006F905F904F900895C12CD12C9FE7E92EF7
:1008100093E4F92E91CEC12CD12C76018DCE60912E
:10082000E1027091E2028091E3029091E402C3D26E
:100830008111F3CE6091E1027091E2028091E302B6
:100840009091E40220E030E044EB53E469DD4B0199
:100850005C017C016B01E894F7F820E030E044E3B0
:1008600053E4C701B6010E944E0E1816B4F420E0FE
:1008700030E0A901C501B4010E944E0E20E030E035
:1008800044EB53E4181634F5C501B40163D74B01AA
:100890005C017C016B01E894F7F820E030E044E370
:1008A00052E4C701B601CED71816C4F025E33AEFDB
:1008B0004EE85CE3C501B4010E94520E4B015C019D
:1008C0000E94B50E6B017C01C501B401BFD72B019D
:1008D0003C01ADCEC501B4013ED7D9CF20E030E018
:1008E00047E053E4C701B601ADD720E030E0A901ED
:1008F00018160CF443C0C501B4010E944E0E20E04E
:1009000030E044EB52E4181614F5C501B40122D7C7
:1009100025E33AEF4EE85CE30E94520E97D76B0155
:100920007C0120E030E044EB52E4C501B40112D771
:1009300025E33AEF4EE85CE30E94520E0E94B50EAA
:100940002B013C0177FA709477F8709470CEC50152
:10095000B40101D725E33AEF4EE85CE30E94520E62
:100960004B015C0173D76B017C01F7FAF094F7F847
:10097000F094C501B4010E94B50EA9CFC501B40120
:100980000E944E0E20E030E044E353E41816BCF41D
:10099000C501B401DFD625E33AEF4EE85CE30E94DF
:1009A000520E4B015C010E94B50E6B017C01F7FAFF
:1009B000F094F7F8F094C501B40148D7C1CFC50150
:1009C000B401C9D6E8CF812C912C8FE7A82E83E4FF
:1009D000B82E62CE812C912C54015ECE2F923F9284
:1009E0004F925F926F927F928F929F92AF92BF923F
:1009F000CF92DF92EF92FF920F931F93CF93DF93EB
:100A000084E090E05ED1CDE2D2E0188282E3682EED
:100A10006C8E93E3792E7D8E24E3222E2E8E35E389
:100A2000332E3F8E46E3442E48A257E3552E59A25B
:100A300088E38AA389E38BA361E3D62EDCA280E35B
:100A40008DA3DEA2DFA2D8A669A6DAA67BA689E4DA
:100A500092E09F838E8385E090E0A0E0B0E08A87FB
:100A60009B87AC87BD871D82812C912C5401839478
:100A700089829A82AB82BC82E12CF12C8701A80189
:100A8000970165E070E080E090E0B1DB99878887AE
:100A90006A857B858C859D8566DB9987888753DB96
:100AA000CC24C394CD821E86E9E8F2E06082709285
:100AB0008A0220928B0230928C0240928D025092D8
:100AC0008E0288E380938F0289E380939002D09214
:100AD000910280E380939202D0929302D09294028A
:100AE000D092950260929602D092970270929802EC
:100AF000FD8BEC8B86E090E0A0E0B0E0888F998FD2
:100B0000AA8FBB8F1B8A8F86988AA98ABA8AA80166
:100B1000970166E070E080E090E069DB9F8B8E8B50
:100B2000688D798D8A8D9B8D1EDB9F8B8E8B0BDB69
:100B3000CB8A1092C9028092CA029092CB02A092F4
:100B4000CC02B092CD0261E082E0F0DAC092CE0237
:100B50001092CF028092D0029092D102A092D20243
:100B6000B092D30261E084E0E1DAC092D402109244
:100B7000D5028092D6029092D702A092D802B0926B
:100B8000D90261E087E0D2DAC092DA021092DB0289
:100B90008092DC029092DD02A092DE02B092DF022F
:100BA00061E088E0C3DAC092E002E0E0F1E080A119
:100BB00091A1A2A1B3A18093E1029093E202A0933C
:100BC000E302B093E40284A995A9A6A9B7A98093EA
:100BD000E5029093E602A093E702B093E8028091C9
:100BE000400190914101A0914201B0914301809355
:100BF000E9029093EA02A093EB02B093EC02DF913A
:100C0000CF911F910F91FF90EF90DF90CF90BF9009
:100C1000AF909F908F907F906F905F904F903F909C
:100C20002F90089580912D02811106C081E080935C
:100C30002D028DE292E0FFDA80913B02811106C025
:100C400081E080933B028BE392E0F5DA8091C90268
:100C5000811103C081E08093C9028091CF0281118C
:100C600003C081E08093CF028091D502811103C03F
:100C700081E08093D5028091DB02811103C081E085
:100C80008093DB02089560E070E080E89FE70895BC
:100C900060E070E080E89FE7089560E070E080E841
:100CA0009FEF089560E070E080E89FEF089560E0B6
:100CB00070E080EC9FEF089560E070E080EC9FEFC3
:100CC0000895F5DF6093FF027093000380930103A2
:100CD00090930203F1DF6093F3027093F402809328
:100CE000F5029093F602CFDF6093FB027093FC0253
:100CF0008093FD029093FE02CBDF6093F702709326
:100D0000F8028093F9029093FA02C7DF609303031D
:100D1000709304038093050390930603C3DF6093ED
:100D20000703709308038093090390930A030895BF
:100D3000CF92DF92EF92FF92CF936B017C01AC01D7
:100D40009B016091FB027091FC028091FD029091E9
:100D5000FE0278D5C1E0882369F0A7019601609171
:100D600003037091040380910503909106036AD5F3
:100D70008111C0E08C2FCF91FF90EF90DF90CF904A
:100D800008950F931F938B019C0100271127207852
:100D90003F770115110520483F4749F4AB01BC01DD
:100DA0006F77772781E0452B462B472B09F480E0AE
:100DB0001F910F910895E5CF08951F920F920FB6DE
:100DC0000F9211242F933F934F935F936F937F93D1
:100DD0008F939F93AF93BF93EF93FF93E09158014D
:100DE000F09159010995FF91EF91BF91AF919F91BA
:100DF0008F917F916F915F914F913F912F910F90C4
:100E00000FBE0F901F9018951F920F920FB60F9262
:100E100011242F933F934F935F936F937F938F93FF
:100E20009F93AF93BF93EF93FF93E0915A01F0919B
:100E30005B010995FF91EF91BF91AF919F918F91C8
:100E40007F916F915F914F913F912F910F900FBEC6
:100E50000F901F9018951F920F920FB60F921124AA
:100E60002F933F938F939F93AF93BF9380917C0178
:100E700090917D01A0917E01B0917F0130917B0125
:100E800023E0230F2D3758F50196A11DB11D2093A6
:100E90007B0180937C0190937D01A0937E01B093B0
:100EA0007F018091800190918101A0918201B09198
:100EB00083010196A11DB11D809380019093810152
:100EC000A0938201B0938301BF91AF919F918F91C5
:100ED0003F912F910F900FBE0F901F90189526E80D
:100EE000230F0296A11DB11DD2CF789484B58260E4
:100EF00084BD84B5816084BD85B5826085BD85B5BE
:100F0000816085BDEEE6F0E0808181608083E1E86C
:100F1000F0E01082808182608083808181608083A4
:100F2000E0E8F0E0808181608083E1EBF0E08081A7
:100F300084608083E0EBF0E0808181608083EAE779
:100F4000F0E0808184608083808182608083808102
:100F5000816080838081806880831092C1000895C1
:100F60001F93CF93DF93182FEB0161E07DD0209783
:100F700031F460E0812FDF91CF911F91B1C0CF3F5D
:100F8000D10511F461E0F6CFE12FF0E0EA57FF4F11
:100F9000E491E33031F140F4E130B1F0E230E1F0DE
:100FA000C038D1057CF7E5CFE73029F1E83059F1B9
:100FB000E430B1F780918000806280938000D0930C
:100FC0008B00C0938A0004C084B5806884BDC7BD0F
:100FD000DF91CF911F91089584B5806284BDC8BD13
:100FE000F7CF80918000806880938000D093890043
:100FF000C0938800EDCF8091B00080688093B000EE
:10100000C093B300E5CF8091B00080628093B000C0
:10101000C093B400DDCF833081F028F4813099F0A3
:101020008230A9F008958730A9F08830C9F0843063
:10103000B1F4809180008F7D03C0809180008F7714
:1010400080938000089584B58F7784BD089584B51A
:101050008F7DFBCF8091B0008F778093B000089593
:101060008091B0008F7DF9CFCF93DF9390E0FC01AA
:10107000E656FF4F249182559F4FFC0184918823AF
:10108000C9F090E0880F991FFC01E453FF4FA59130
:10109000B491FC01EE53FF4FC591D49161110DC085
:1010A0009FB7F8948C91209582238C938881282374
:1010B00028839FBFDF91CF910895623051F49FB78D
:1010C000F8943C91822F809583238C93E8812E2B7A
:1010D000EFCF8FB7F894EC912E2B2C938FBFEACFE4
:1010E0001F93CF93DF93282F30E0F901EA57FF4F8A
:1010F0008491F901E656FF4FD491F901E255FF4F73
:10110000C491CC23A1F0162F811185DFEC2FF0E0E4
:10111000EE0FFF1FEE53FF4FA591B4918FB7F894D8
:10112000EC91111108C0D095DE23DC938FBFDF91C5
:10113000CF911F910895DE2BF8CFFC01918D228D68
:10114000892F90E0805C9F4F821B91098F739927B4
:101150000895FC01918D828D981731F0828DE80FF2
:10116000F11D858D90E008958FEF9FEF0895FC01AC
:10117000918D828D981761F0A28DAE0FBF2FB11D9A
:101180005D968C91928D9F5F9F73928F90E00895F2
:101190008FEF9FEF0895FC01538D448D252F30E094
:1011A000842F90E0821B930B541710F0CF96089574
:1011B00001970895FC01A48DA80FB92FB11DA35A62
:1011C000BF4F2C91848D90E001968F739927848F67
:1011D000A689B7892C93A089B1898C91837080648A
:1011E0008C93938D848D981306C00288F389E02D2B
:1011F00080818F7D80830895CF93DF93EC01888D6C
:101200008823B1F0AA89BB89E889F9898C9185FD89
:1012100003C0808186FD0CC00FB607FCF7CF8C9110
:1012200085FFF2CF808185FFEDCFCE01C3DFEACF0E
:10123000DF91CF910895EF92FF920F931F93CF9379
:10124000DF93EC0181E0888F9B8D8C8D98131AC001
:10125000E889F989808185FF15C09FB7F894EE89E8
:10126000FF896083E889F989808183708064808345
:101270009FBF81E090E0DF91CF911F910F91FF9090
:10128000EF900895F62E0B8D10E00F5F1F4F0F7338
:101290001127E02E8C8D8E110BC00FB607FCFACFF4
:1012A000E889F989808185FFF5CFCE0183DFF2CF10
:1012B000EB8DEC0FFD2FF11DE35AFF4FF0829FB72E
:1012C000F8940B8FEA89FB8980818062D0CFCF921E
:1012D000DF92EF92FF921F93CF93DF93EC016A01AD
:1012E0007B01122FE889F98982E08083C11481EEA5
:1012F000D806E104F10499F060E079E08DE390E034
:10130000A70196016ED52150310941095109569521
:10131000479537952795211580E1380790F0E889A2
:10132000F989108260E874E88EE190E0A7019601E7
:1013300058D521503109410951095695479537959E
:101340002795EC85FD853083EE85FF852083188EFB
:10135000EC89FD891083EA89FB8980818061808323
:10136000EA89FB89808188608083EA89FB898081A2
:1013700080688083EA89FB8980818F7D8083DF910B
:10138000CF911F91FF90EF90DF90CF9008951F9223
:101390000F920FB60F9211242F938F939F93EF9379
:1013A000FF93E0919401F09195018081E0919A0181
:1013B000F0919B0182FD1BC0908180919D018F5F08
:1013C0008F7320919E01821741F0E0919D01F0E022
:1013D000EC57FE4F958F80939D01FF91EF919F9168
:1013E0008F912F910F900FBE0F901F9018958081B5
:1013F000F4CF1F920F920FB60F9211242F933F93A9
:101400004F935F936F937F938F939F93AF93BF930C
:10141000EF93FF9384E891E0CDDEFF91EF91BF91D0
:10142000AF919F918F917F916F915F914F913F917C
:101430002F910F900FBE0F901F901895E4E8F1E0E8
:101440001382128288EE93E0A0E0B0E0848395835B
:10145000A683B78383E691E09183808385EC90E057
:101460009587848784EC90E09787868780EC90E06E
:10147000918B808B81EC90E0938B828B82EC90E05F
:10148000958B848B86EC90E0978B868B118E128ED9
:10149000138E148E0895AF92BF92CF92DF92EF9287
:1014A000FF920F931F93CF93DF936C017B018B010E
:1014B000040F151FEB015E01AE18BF08C017D1075E
:1014C00059F06991D601ED91FC910190F081E02DE8
:1014D000C6010995892B79F7C501DF91CF911F913D
:1014E0000F91FF90EF90DF90CF90BF90AF90089555
:1014F000813039F018F0823051F0089510926E006A
:10150000089580916F008D7F80936F000895809182
:1015100070008D7F8093700081E08093B000809197
:10152000B100887F84608093B1001092B300089569
:10153000CF93C82F80915C01C8130BC0E6EDF0E09B
:1015400084919FEF90935C01D3DF60E08C2FCF916B
:10155000C7CD8FEFF9CF1F920F920FB60F921124C4
:101560002F933F934F935F936F937F938F939F93AB
:10157000AF93BF93EF93FF93809124029091250244
:10158000A0912602B0912702892B8A2B8B2BD1F1B7
:1015900090912102E0912202F0912302808189271B
:1015A00080838091240290912502A0912602B0911F
:1015B0002702181619061A061B069CF480912402AD
:1015C00090912502A0912602B09127020197A109CE
:1015D000B1098093240290932502A0932602B09330
:1015E0002702FF91EF91BF91AF919F918F917F91D2
:1015F0006F915F914F913F912F910F900FBE0F9080
:101600001F90189580915C0193DFEBCF40E855E285
:1016100060E070E090E080E000C026E084E891E0C7
:1016200056CE1F920F920FB60F9211242F933F9315
:101630004F935F936F937F938F939F93AF93BF93DA
:10164000EF93FF938FE89DEF909385008093840044
:1016500032D0FF91EF91BF91AF919F918F917F9188
:101660006F915F914F913F912F910F900FBE0F900F
:101670001F9018958FE89DEF9093850080938400CC
:10168000AFE6B0E08C918E7F8C93E0E8F0E0808153
:101690008C7F8083E1E8F0E08081877E8083808199
:1016A0008460808380818C7F80838C9181608C9327
:1016B000089581E0089580912A0291E0980F909317
:1016C0002A02882349F021E030E030932C02209355
:1016D0002B0280932A02089578940E945102F89474
:1016E00080912A028150F5CFCF93DF931092290287
:1016F00010922802FADB8ADFC0915D01D0915E0171
:10170000198218826BD9B6DF81E028813981232BB9
:1017100009F080E0809328027894789480912802E0
:10172000811107C07FDAF89490E080E0DF91CF91DB
:10173000089581E028813981232B09F480E080938A
:1017400029029091290281E0911180E08093280282
:10175000B0DFE4CF5058BB27AA270ED03DC206D237
:1017600030F00BD220F031F49F3F11F41EF4FBC196
:101770000EF4E095E7FBC8C1E92F50D280F3BA1709
:10178000620773078407950718F071F49EF57FC20E
:101790000EF4E0950B2EBA2FA02D0B01B90190018C
:1017A0000C01CA01A0011124FF27591B99F0593FD0
:1017B00050F4503E68F11A16F040A22F232F342F18
:1017C0004427585FF3CF469537952795A795F04066
:1017D0005395C9F77EF41F16BA0B620B730B840B7B
:1017E000BAF09150A1F0FF0FBB1F661F771F881F33
:1017F000C2F70EC0BA0F621F731F841F48F487958B
:1018000077956795B795F7959E3F08F0B3CF939579
:10181000880F08F09927EE0F97958795089520D2A5
:1018200080F09F3740F491110EF432C260E070E016
:1018300080E89FE3089526F01B16611D711D811D30
:1018400069C183C13DD108F481E008959ED1E3953B
:10185000D4C10CD0C1C191D140F088D130F021F475
:101860005F3F19F051C1511113C27DC1D7D198F317
:101870009923C9F35523B1F3951B550BBB27AA2711
:1018800062177307840738F09F5F5F4F220F331F83
:10189000441FAA1FA9F333D00E2E3AF0E0E830D04F
:1018A00091505040E695001CCAF729D0FE2F27D052
:1018B000660F771F881FBB1F261737074807AB0720
:1018C000B0E809F0BB0B802DBF01FF2793585F4F95
:1018D0002AF09E3F510568F017C1DAC15F3FECF373
:1018E000983EDCF3869577956795B795F7959F5F5A
:1018F000C9F7880F911D9695879597F90895E1E0AE
:10190000660F771F881FBB1F621773078407BA070C
:1019100020F0621B730B840BBA0BEE1F88F7E09567
:10192000089504D06894B111B3C108957FD188F0AF
:101930009F5790F0B92F9927B751A0F0D1F0660FBB
:10194000771F881F991F1AF0BA95C9F712C0B130D6
:1019500081F09DD1B1E008959AC1672F782F882733
:10196000B85F39F0B93FCCF3869577956795B39515
:10197000D9F73EF490958095709561957F4F8F4F84
:101980009F4F0895E89409C097FB3EF49095809589
:10199000709561957F4F8F4F9F4F9923A9F0F92F35
:1019A00096E9BB279395F695879577956795B795B3
:1019B000F111F8CFFAF4BB0F11F460FF1BC06F5F99
:1019C0007F4F8F4F9F4F16C0882311F096E911C0AB
:1019D000772321F09EE8872F762F05C0662371F0CC
:1019E00096E8862F70E060E02AF09A95660F771FE0
:1019F000881FDAF7880F9695879597F9089530D163
:101A000080F09F3740F491110EF042C160E070E029
:101A100080E89FEB089526F41B16611D711D811D42
:101A200079C093C0A3D018F011F0A7D038F49BC0B0
:101A30002FC1E92FF3D0B0F35523C9F3E7FB6217A9
:101A4000730784079507A8F199F3E92FFF278823E7
:101A50002AF03197660F771F881FDAF7952F5527E1
:101A6000442332F091505040220F331F441FD2F7CD
:101A7000BB27E91BF50B621B730B840BB109C1F289
:101A800022F4620F731F841FB11D31972AF0660F75
:101A9000771F881FBB1FEFCF915050405AF041F085
:101AA000882332F0660F771F881F91505040C1F78E
:101AB00093954BC08695779567959F5FD9F7F8CF3B
:101AC000990F0008550FAA0BE0E8FEEF161617064F
:101AD000E807F907C0F012161306E407F50798F0B7
:101AE000621B730B840B950B39F40A2661F0232BD0
:101AF000242B252B21F408950A2609F4A140A6954C
:101B00008FEF811D811D089597F99F6780E870E030
:101B100060E00895882371F4772321F09850872B93
:101B2000762F07C0662311F499270DC09051862B9C
:101B300070E060E02AF09A95660F771F881FDAF749
:101B4000880F9695879597F908959F3F31F09150AA
:101B500020F4879577956795B795880F911D969591
:101B6000879597F908959FEF80EC089500240A94D3
:101B70001616170618060906089500240A94121668
:101B80001306140605060895EECF50D0E8F3E89446
:101B9000E0E0BB279F57F0F02AED3FE049EC06C09C
:101BA000EE0FBB0F661F771F881F28F0B23A62073F
:101BB0007307840728F0B25A620B730B840BE3950A
:101BC0009A9572F7803830F49A95BB0F661F771F8D
:101BD000881FD2F79048BBCF092E0394000C11F454
:101BE000882352F0BB0F40F4BF2B11F460FF04C0F8
:101BF0006F5F7F4F8F4F9F4F0895EF93E0FF06C0B9
:101C0000A2EA2AED3FE049EC5FEBB6DDE5DF0F909D
:101C1000039401FC9058E8E6F0E0ADC057FD905801
:101C2000440F551F59F05F3F71F04795880F97FBA0
:101C3000991F61F09F3F79F087950895121613065A
:101C40001406551FF2CF4695F1DF08C01616170689
:101C50001806991FF1CF86957105610508940895BE
:101C6000E5DFA0F0BEE7B91788F4BB279F3860F422
:101C70001616B11D672F782F8827985FF7CF8695A6
:101C800077956795B11D93959639C8F30895E894B3
:101C9000BB2766277727CB0197F9089511DF08F452
:101CA0008FEF08950BD098CF61DF28F066DF18F032
:101CB000952309F029CF57CF1124EACFAFDFA0F346
:101CC000959FD1F3950F50E0551F629FF001729FD1
:101CD000BB27F00DB11D639FAA27F00DB11DAA1FF0
:101CE000649F6627B00DA11D661F829F2227B00D3D
:101CF000A11D621F739FB00DA11D621F839FA00DC8
:101D0000611D221F749F3327A00D611D231F849F17
:101D1000600D211D822F762F6A2F11249F5750406E
:101D20008AF0E1F088234AF0EE0FFF1FBB1F661F09
:101D3000771F881F91505040A9F79E3F510570F0C2
:101D4000E3CEA6CF5F3FECF3983EDCF38695779524
:101D50006795B795F795E7959F5FC1F7FE2B880FBD
:101D6000911D9695879597F908959F930EDF0F9093
:101D700007FCEE5F42CF9F938F937F936F93FF9308
:101D8000EF939B01AC018EDFEF91FF9105D02F9176
:101D90003F914F915F9186CFDF93CF931F930F9326
:101DA000FF92EF92DF927B018C01689405C0DA2EDE
:101DB000EF0184DFFE01E894A591259135914591CD
:101DC0005591AEF3EF01D8DCFE019701A801DA943A
:101DD00079F7DF90EF90FF900F911F91CF91DF91F6
:101DE0000895A1E21A2EAA1BBB1BFD010DC0AA1F5C
:101DF000BB1FEE1FFF1FA217B307E407F50720F074
:101E0000A21BB30BE40BF50B661F771F881F991FEE
:101E10001A9469F760957095809590959B01AC0137
:101E2000BD01CF010895EE0FFF1F0590F491E02D45
:061E30000994F894FFCFB5
:101E36000000E0400000CC415077D63D0000F04164
:101E46000000E0405077D63D0000F0410AD7233C21
:101E56000000000000001643E12E65420000CC4160
:101E66000AD7233C00000000000080BF0AD7233CAD
:101E7600000000000000803F00000040000000005D
:101E8600000080BF01000100DC06DC06FFF1020055
:101E96000000001B094B0ACB08FC089D08B708A9DF
:021EA600080032
:00000001FF
